:020000040800F2
:1000000000A0002059070008E1060008E7060008E4
:10001000ED060008F3060008F906000800000000DD
:10002000000000000000000000000000B1450008D2
:10003000FF06000800000000014800080D07000846
:10004000A907000827070008A9070008A907000852
:10005000A9070008A9070008A9070008A9070008C0
:10006000A9070008A9070008A9070008A9070008B0
:10007000A9070008A9070008A9070008A9070008A0
:10008000A9070008A9070008A9070008A907000890
:10009000A9070008A9070008A9070008A907000880
:1000A000A9070008A9070008A9070008A907000870
:1000B000A9070008A9070008A9070008A907000860
:1000C000A9070008A9070008A9070008A907000850
:1000D000A9070008A9070008A9070008A907000840
:1000E000A9070008A9070008A9070008A907000830
:1000F000A9070008A9070008A9070008A907000820
:10010000000000000000000000000000A907000837
:10011000A9070008A9070008A9070008A9070008FF
:10012000A9070008A9070008A9070008A9070008EF
:10013000A9070008A907000800000000000000004F
:10014000A9070008A9070008A90700080000000087
:10015000000000000000000000000000000000009F
:100160000000000000000000A9070008A90700081F
:10017000A9070008000000000000000000000000C7
:0801800000000000A9070008BF
:1001900010B5054C237833B9044B13B10448AFF3C1
:1001A00000800123237010BD4800002000000000E3
:1001B000B04D000808B5034B1BB103490348AFF32A
:1001C000008008BD000000004C000020B04D000879
:1001D00080B500AF00F00EF800BF80BD80B500AF65
:1001E00000F02CF800BF80BD80B500AF00F056F8DD
:1001F00000BF80BD80B483B000AF00237B6011E0FE
:1002000001227B6802FA03F31BB2DB431AB20A4BEA
:100210001B881BB213401BB29AB2074B1A807B6833
:1002200001337B607B68062BEADD00BF00BF0C3723
:10023000BD465DF8047B70476400002080B500AFC8
:1002400000F07EF8134B1B78DBB2002B0CD0124B66
:100250001B78002B08D10F4B00221A700E4B012285
:100260001A7000F027F810E00A4B1B78DBB2002B65
:100270000BD0094B1B78002B07D0064B00221A70BD
:10028000054B00221A7000F037F800F085F800BF27
:1002900080BD00BF660000206700002080B400AF72
:1002A000034B01221A7000BFBD465DF8047B704706
:1002B0006600002080B483B000AF00237B600FE0B5
:1002C00001227B6802FA03F31AB20A4B1B881BB2A5
:1002D00013431BB29AB2074B1A807B6801337B60D1
:1002E0007B68062BECDD00BF00BF0C37BD465DF818
:1002F000047B70476400002080B483B000AF00230B
:100300007B6011E001227B6802FA03F31BB2DB433E
:100310001AB20A4B1B881BB213401BB29AB2074B8E
:100320001A807B6801337B607B68062BEADD00BFA7
:1003300000BF0C37BD465DF8047B704764000020A9
:1003400090B583B000AF00237B6019E0104A7B6852
:1003500052F833000E4A7B68DB00134499880D4B3A
:100360001B885AB201247B6804FA03F35BB2134082
:100370005BB2DBB21A4600F023FD7B6801337B6081
:100380007B68062BE2DD00BF00BF0C37BD4690BD89
:10039000000000206400002080B582B000AFFB1D8B
:1003A0001A4602214FF0904000F01AF80346002B45
:1003B0000FD1FB79002B06D101224FF400410748F1
:1003C00000F0FEFC05E000224FF40041034800F07D
:1003D000F7FC00BF0837BD4680BD00BF00100048D5
:1003E00080B586B000AFF8600B467A607B81002351
:1003F000FB750023BB75FB68002B1CD07B68002BB2
:1004000019D07B891946F86800F0C2FC0346FB75D9
:100410001E2001F0A8FF7B891946F86800F0B8FC9F
:100420000346BB75FA7DBB7D9A4204D17B68FA7D99
:100430001A70002300E0012318461837BD4680BD1E
:1004400080B485B000AFF860B9607A60FB68074A95
:100450001A60BB68064A1A607B6880221A6000BF77
:100460001437BD465DF8047B704700BF7000002064
:10047000C400002080B485B000AFF860B9607A6035
:10048000FB68074A1A60BB68064A1A607B684FF42B
:1004900080721A6000BF1437BD465DF8047B704758
:1004A000C402002018030020B0B58AB000AF114B81
:1004B0003B6200237B6207F12003002201211846E2
:1004C00001F066FF03460C4A13600C4B3C1D1D46B1
:1004D0000FCD0FC495E8070084E807003B1D0021FD
:1004E000184601F0F4FE0346054A136000BF2837A2
:1004F000BD46B0BD290500086C000020D44D0008A1
:100500006800002080B582B000AF7860FFF760FE21
:10051000044B1B684FF47A71184601F06DFFFFF72A
:100520005DFEFCE76C00002080B582B000AF786013
:10053000FFF75AFE00BF0837BD4680BD80B588B0C2
:1005400000AF07F10C0300221A605A609A60DA606B
:100550001A611F4B5B691E4A43F4003353611C4B05
:100560005B6903F40033BB60BB68194B5B69184AD5
:1005700043F400135361164B5B6903F400137B6073
:100580007B6800224FF47F41124800F019FC0223DF
:10059000FB6000233B6101237B6107F10C031946DB
:1005A0004FF0904000F07AFA4FF47F43FB60012354
:1005B0003B6102237B610023BB6107F10C031946F9
:1005C000044800F06BFA00BF2037BD4680BD00BF75
:1005D000001002400010004880B500AF00F0E6F8BF
:1005E00000F007F8FFF7AAFFFFF75EFF01F068FED3
:1005F000FEE780B590B000AF07F118032822002174
:10060000184604F0CDFB3B1D00221A605A609A6028
:10061000DA601A610223BB610123BB621023FB6213
:1006200002237B630023BB634FF46013FB6307F17A
:100630001803184600F0F6FB0346002B01D000F02B
:1006400019F80F237B600223BB600023FB604FF48B
:1006500080633B6100237B613B1D0221184601F052
:100660001FFC0346002B01D000F004F800BF403708
:10067000BD4680BD80B400AF72B600BFFEE700008B
:1006800080B582B000AF154B9B69144A43F001035B
:100690009361124B9B6903F001037B607B680F4BF6
:1006A000DB690E4A43F08053D3610C4BDB6903F0E6
:1006B00080533B603B6800220F216FF0010000F087
:1006C000B6F900220521012000F0B1F9012000F067
:1006D000CAF900BF0837BD4680BD00BF0010024008
:1006E00080B400AFFEE780B400AFFEE780B400AF97
:1006F000FEE780B400AFFEE780B400AFFEE780B451
:1007000000AF00BFBD465DF8047B704780B500AF09
:1007100000F092F803F054FA0346012B01D004F0E4
:10072000A3F800BF80BD80B500AF00F061FB00BF43
:1007300080BD000080B400AF064BD3F88830054A76
:1007400043F47003C2F8883000BFBD465DF8047BF7
:10075000704700BF00ED00E0DFF834D00D480E49CF
:100760000E4A002302E0D458C4500433C4188C420B
:10077000F9D30B4A0B4C002301E013600432A24270
:10078000FBD3FFF7D7FF04F0D9FAFFF725FFFEE709
:1007900000A000200000002048000020444E000877
:1007A00048000020A4150020FEE7000080B500AF3F
:1007B000084B1B68074A43F010031360032000F046
:1007C0002BF90F2000F008F8FFF75AFF0023184616
:1007D00080BD00BF0020024080B582B000AF7860CD
:1007E000124B1A68124B1B7819464FF47A73B3FBFD
:1007F000F1F3B2FBF3F3184600F043F90346002B84
:1008000001D001230EE07B680F2B0AD80022796803
:100810004FF0FF3000F00BF9064A7B6813600023AD
:1008200000E0012318460837BD4680BD380000208F
:10083000400000203C00002080B400AF064B1B7835
:100840001A46064B1B681344044A136000BFBD469A
:100850005DF8047B704700BF4000002018070020AF
:1008600080B400AF034B1B681846BD465DF8047B9F
:10087000704700BF1807002080B485B000AF7860D3
:100880007B6803F00703FB600C4BDB68BB60BA6856
:100890004FF6FF031340BB60FB681A02BB681343AB
:1008A00043F0BF6343F40033BB60044ABB68D360CA
:1008B00000BF1437BD465DF8047B704700ED00E0D3
:1008C00080B400AF044BDB681B0A03F00703184633
:1008D000BD465DF8047B704700ED00E080B483B056
:1008E00000AF0346FB7197F90730002B0BDBFB7958
:1008F00003F01F02074997F907305B09012000FA4E
:1009000002F241F8232000BF0C37BD465DF8047B9E
:10091000704700BF00E100E080B483B000AF034641
:100920003960FB7197F90730002B0ADB3B68DAB2BC
:100930000C4997F907301201D2B20B4483F8002317
:100940000AE03B68DAB20849FB7903F00F03043B85
:100950001201D2B20B441A7600BF0C37BD465DF8C7
:10096000047B704700E100E000ED00E080B489B056
:1009700000AFF860B9607A60FB6803F00703FB61C1
:10098000FB69C3F10703042B28BF0423BB61FB6988
:100990000433062B02D9FB69033B00E000237B6193
:1009A0004FF0FF32BB6902FA03F3DA43BB681A4027
:1009B0007B699A404FF0FF317B6901FA03F3D94319
:1009C0007B680B40134318462437BD465DF8047B13
:1009D0007047000080B582B000AF78607B68013B53
:1009E000B3F1807F01D301230FE00A4A7B68013B0A
:1009F00053600F214FF0FF30FFF78EFF054B0022B1
:100A00009A60044B07221A60002318460837BD4637
:100A100080BD00BF10E000E080B582B000AF78601C
:100A20007868FFF729FF00BF0837BD4680BD80B555
:100A300086B000AF0346B9607A60FB7300237B6128
:100A4000FFF73EFF78617A68B9687869FFF78EFF33
:100A5000024697F90F3011461846FFF75DFF00BFB9
:100A60001837BD4680BD80B582B000AF0346FB712C
:100A700097F907301846FFF731FF00BF0837BD462A
:100A800080BD80B582B000AF78607868FFF7A2FFC4
:100A9000034618460837BD4680BD000080B487B0C5
:100AA00000AF7860396000237B6154E13B681A68CD
:100AB00001217B6901FA03F31340FB60FB68002B03
:100AC00000F046813B685B6803F00303012B05D00F
:100AD0003B685B6803F00303022B30D17B689B68A3
:100AE0003B617B695B00032202FA03F3DB433A6953
:100AF00013403B613B68DA687B695B0002FA03F3F1
:100B00003A6913433B617B683A699A607B685B682A
:100B10003B6101227B6902FA03F3DB433A6913402C
:100B20003B613B685B681B0903F001027B6902FAC9
:100B300003F33A6913433B617B683A695A603B6847
:100B40005B6803F00303032B17D07B68DB683B6112
:100B50007B695B00032202FA03F3DB433A6913402B
:100B60003B613B689A687B695B0002FA03F33A6970
:100B700013433B617B683A69DA603B685B6803F06A
:100B80000303022B23D17B69DA087B68083253F810
:100B900022303B617B6903F007039B000F2202FABE
:100BA00003F3DB433A6913403B613B681A697B6995
:100BB00003F007039B0002FA03F33A6913433B6116
:100BC0007B69DA087B680832396943F822107B6850
:100BD0001B683B617B695B00032202FA03F3DB4382
:100BE0003A6913403B613B685B6803F003027B6931
:100BF0005B0002FA03F33A6913433B617B683A698D
:100C00001A603B685B6803F44033002B00F0A0805F
:100C1000584B9B69574A43F001039361554B9B69BD
:100C200003F00103BB60BB68534A7B699B08023336
:100C300052F823303B617B6903F003039B000F22D2
:100C400002FA03F3DB433A6913403B617B68B3F17B
:100C5000904F19D07B68494A934213D07B68484A29
:100C600093420DD07B68474A934207D07B68464A3F
:100C7000934201D1042308E0052306E0032304E0A6
:100C8000022302E0012300E000237A6902F003025C
:100C9000920093403A6913433B6137497B699B0853
:100CA00002333A6941F82320384B1B683B61FB68EB
:100CB000DB433A6913403B613B685B6803F4803374
:100CC000002B03D03A69FB6813433B612F4A3B6911
:100CD00013602E4B5B683B61FB68DB433A69134052
:100CE0003B613B685B6803F40033002B03D03A6937
:100CF000FB6813433B61254A3B695360234B9B6868
:100D00003B61FB68DB433A6913403B613B685B68CE
:100D100003F48013002B03D03A69FB6813433B6153
:100D20001A4A3B699360194BDB683B61FB68DB4304
:100D30003A6913403B613B685B6803F40013002B86
:100D400003D03A69FB6813433B61104A3B69D360A7
:100D50007B6901337B613B681A687B6922FA03F384
:100D6000002B7FF4A3AE00BF00BF1C37BD465DF86B
:100D7000047B70470010024000000140000400485E
:100D800000080048000C0048001000480004014022
:100D900080B485B000AF78600B467B807B681A69B1
:100DA0007B881340002B02D00123FB7301E000235A
:100DB000FB73FB7B18461437BD465DF8047B704718
:100DC00080B483B000AF78600B467B8013467B70A5
:100DD0007B78002B03D07A887B689A6102E07A885E
:100DE0007B689A6200BF0C37BD465DF8047B704794
:100DF00080B500AF064B5B6903F48033002B05D050
:100E000000F008F8024B4FF480325A6100BF80BDF9
:100E10000004014080B400AF00BFBD465DF8047B14
:100E20007047000080B5ADF5007D00AF07F5007399
:100E3000A3F5FE73186007F50073A3F5FE731B6836
:100E4000002B02D1012301F023B807F50073A3F5AD
:100E5000FE731B681B6803F00103002B00F07D810B
:100E6000BC4B5B6803F00C03042B0CD0B94B5B68E4
:100E700003F00C03082B5CD1B64B5B6803F48033A2
:100E8000B3F5803F55D14FF40033C7F8F031D7F8B0
:100E9000F03193FAA3F3C7F8EC31D7F8EC31B3FA99
:100EA00083F3DBB25B09DBB243F00103DBB2012B5E
:100EB00002D1A84B1B6815E04FF40033C7F8E831A6
:100EC000D7F8E83193FAA3F3C7F8E4314FF40033CD
:100ED000C7F8E031D7F8E03193FAA3F3C7F8DC3173
:100EE0009C4B5B6A4FF40032C7F8D821D7F8D82161
:100EF00092FAA2F2C7F8D421D7F8D421B2FA82F23A
:100F0000D2B242F02002D2B202F01F02012101FA55
:100F100002F21340002B00F01F8107F50073A3F5C8
:100F2000FE731B685B68002B40F01681012300F004
:100F3000AFBF07F50073A3F5FE731B685B68B3F5DD
:100F4000803F06D1834B1B68824A43F48033136091
:100F500036E007F50073A3F5FE731B685B68002B92
:100F60000CD17C4B1B687B4A23F480331360794B94
:100F70001B68784A23F48023136021E007F500738F
:100F8000A3F5FE731B685B68B3F5A02F0CD1714B02
:100F90001B68704A43F4802313606E4B1B686D4AD4
:100FA00043F4803313600BE06A4B1B68694A23F4F7
:100FB00080331360674B1B68664A23F480231360F9
:100FC000644BDB6A23F00F0207F50073A3F5FE7391
:100FD0001B689B685F491343CB6207F50073A3F559
:100FE000FE731B685B68002B59D0FFF739FCC7F80C
:100FF000F8010AE0FFF734FC0246D7F8F831D31ABB
:10100000642B02D9032300F043BF4FF40033C7F829
:10101000D031D7F8D03193FAA3F3C7F8CC31D7F851
:10102000CC31B3FA83F3DBB25B09DBB243F00103EB
:10103000DBB2012B02D1474B1B6815E04FF40033A4
:10104000C7F8C831D7F8C83193FAA3F3C7F8C43149
:101050004FF40033C7F8C031D7F8C03193FAA3F387
:10106000C7F8BC313B4B5B6A4FF40032C7F8B8217C
:10107000D7F8B82192FAA2F2C7F8B421D7F8B42170
:10108000B2FA82F2D2B242F02002D2B202F01F02D1
:10109000012101FA02F21340002BABD05DE0FFF713
:1010A000DFFBC7F8F8010AE0FFF7DAFB0246D7F8E2
:1010B000F831D31A642B02D9032300F0E9BE4FF4B0
:1010C0000033C7F8B031D7F8B03193FAA3F3C7F8BB
:1010D000AC31D7F8AC31B3FA83F3DBB25B09DBB2E6
:1010E00043F00103DBB2012B02D11A4B1B6815E060
:1010F0004FF40033C7F8A831D7F8A83193FAA3F317
:10110000C7F8A4314FF40033C7F8A031D7F8A031A5
:1011100093FAA3F3C7F89C310E4B5B6A4FF400328D
:10112000C7F89821D7F8982192FAA2F2C7F894212B
:10113000D7F89421B2FA82F2D2B242F02002D2B2AF
:1011400002F01F02012101FA02F21340002BABD181
:1011500003E000BF0010024000BF07F50073A3F5D5
:10116000FE731B681B6803F00203002B00F07D81F7
:10117000A64B5B6803F00C03002B0BD0A34B5B6802
:1011800003F00C03082B72D1A04B5B6803F480338F
:10119000002B6CD10223C7F89031D7F8903193FA25
:1011A000A3F3C7F88C31D7F88C31B3FA83F3DBB2F1
:1011B0005B09DBB243F00103DBB2012B02D1934B9D
:1011C0001B6813E00223C7F88831D7F8883193FAF7
:1011D000A3F3C7F884310223C7F88031D7F88031F0
:1011E00093FAA3F3C7F87C31884B5B6A0222C7F8F5
:1011F0007821D7F8782192FAA2F2C7F87421D7F8AB
:101200007421B2FA82F2D2B242F02002D2B202F0DB
:101210001F02012101FA02F21340002B0AD007F548
:101220000073A3F5FE731B681B69012B02D0012319
:1012300000F02EBE754B1B6823F0F80207F5007313
:10124000A3F5FE731B685B69F821C7F87011D7F826
:10125000701191FAA1F1C7F86C11D7F86C11B1FABD
:1012600081F1C9B28B40694913430B60FDE007F57A
:101270000073A3F5FE731B681B69002B00F08880C8
:101280000123C7F86831D7F8683193FAA3F3C7F898
:101290006431D7F86431B3FA83F3DBB203F18453DA
:1012A00003F584139B001A4601231360FFF7D8FA55
:1012B000C7F8F8010AE0FFF7D3FA0246D7F8F83189
:1012C000D31A022B02D9032300F0E2BD0223C7F890
:1012D0006031D7F8603193FAA3F3C7F85C31D7F8DF
:1012E0005C31B3FA83F3DBB25B09DBB243F0010399
:1012F000DBB2012B02D1454B1B6813E00223C7F878
:101300005831D7F8583193FAA3F3C7F85431022370
:10131000C7F85031D7F8503193FAA3F3C7F84C31DE
:101320003A4B5B6A0222C7F84821D7F8482192FA63
:10133000A2F2C7F84421D7F84421B2FA82F2D2B21D
:1013400042F02002D2B202F01F02012101FA02F2A1
:101350001340002BAFD02D4B1B6823F0F80207F58C
:101360000073A3F5FE731B685B69F821C7F8401191
:10137000D7F8401191FAA1F1C7F83C11D7F83C1108
:10138000B1FA81F1C9B28B40204913430B606CE084
:101390000123C7F83831D7F8383193FAA3F3C7F8E7
:1013A0003431D7F83431B3FA83F3DBB203F1845329
:1013B00003F584139B001A4600231360FFF750FACD
:1013C000C7F8F8010AE0FFF74BFA0246D7F8F83100
:1013D000D31A022B02D9032300F05ABD0223C7F807
:1013E0003031D7F8303193FAA3F3C7F82C31D7F85E
:1013F0002C31B3FA83F3DBB25B09DBB243F00103B8
:10140000DBB2012B04D1014B1B6815E00010024038
:101410000223C7F82831D7F8283193FAA3F3C7F885
:1014200024310223C7F82031D7F8203193FAA3F3EF
:10143000C7F81C31C84B5B6A0222C7F81821D7F8DD
:10144000182192FAA2F2C7F81421D7F81421B2FA9F
:1014500082F2D2B242F02002D2B202F01F02012187
:1014600001FA02F21340002BADD107F50073A3F58A
:10147000FE731B681B6803F00803002B00F010814B
:1014800007F50073A3F5FE731B689B69002B79D0E9
:101490000123C7F81031D7F8103193FAA3F3C7F836
:1014A0000C31D7F80C31B3FA83F3DBB21A46AB4BED
:1014B00013449B001A4601231360FFF7D1F9C7F8C4
:1014C000F8010AE0FFF7CCF90246D7F8F831D31A51
:1014D000022B02D9032300F0DBBC0223C7F808313A
:1014E000D7F8083193FAA3F3C7F8043107F500736E
:1014F000A3F5807302221A6007F50073A3F58073C9
:101500001B6893FAA3F207F50073A3F582731A60C0
:1015100007F50073A3F5847302221A6007F50073C0
:10152000A3F584731B6893FAA3F207F50073A3F580
:1015300086731A60884B5A6A07F50073A3F588739F
:101540000221196007F50073A3F588731B6893FAED
:10155000A3F107F50073A3F58A73196007F500730B
:10156000A3F58A731B68B3FA83F3DBB243F060031D
:10157000DBB203F01F03012101FA03F31340002B38
:10158000A0D08DE007F50073A3F58C7301221A60DB
:1015900007F50073A3F58C731B6893FAA3F207F5A4
:1015A0000073A3F58E731A6007F50073A3F58E73AD
:1015B0001B68B3FA83F3DBB21A46684B13449B00F3
:1015C0001A4600231360FFF74BF9C7F8F8010AE049
:1015D000FFF746F90246D7F8F831D31A022B02D9A1
:1015E000032300F055BC07F50073A3F590730222A6
:1015F0001A6007F50073A3F590731B6893FAA3F2C2
:1016000007F50073A3F592731A6007F50073A3F54D
:10161000947302221A6007F50073A3F594731B6894
:1016200093FAA3F207F50073A3F596731A6007F512
:101630000073A3F5987302221A6007F50073A3F5EF
:1016400098731B6893FAA3F207F50073A3F59A73D6
:101650001A60414B5A6A07F50073A3F59C73022187
:10166000196007F50073A3F59C731B6893FAA3F147
:1016700007F50073A3F59E73196007F50073A3F5D2
:101680009E731B68B3FA83F3DBB243F06003DBB2F3
:1016900003F01F03012101FA03F31340002B97D13C
:1016A00007F50073A3F5FE731B681B6803F00403C2
:1016B000002B00F0A181002387F8FF31264BDB6966
:1016C00003F08053002B16D1234BDB69224A43F0F1
:1016D0008053D361204BDB6903F0805207F5007320
:1016E000A3F5FC731A6007F50073A3F5FC731B6880
:1016F000012387F8FF311A4B1B6803F48073002B1A
:101700001AD1174B1B68164A43F480731360FFF716
:10171000A7F8C7F8F80109E0FFF7A2F80246D7F8E2
:10172000F831D31A642B01D90323B1E30C4B1B68A6
:1017300003F48073002BEFD007F50073A3F5FE735D
:101740001B68DB68012B0DD1034B1B6A024A43F077
:10175000010313623CE000BF0010024020819010A2
:101760000070004007F50073A3F5FE731B68DB688B
:10177000002B0CD1C14B1B6AC04A23F0010313623A
:10178000BE4B1B6ABD4A23F00403136220E007F539
:101790000073A3F5FE731B68DB68052B0CD1B74BF8
:1017A0001B6AB64A43F004031362B44B1B6AB34A84
:1017B00043F0010313620BE0B04B1B6AAF4A23F006
:1017C00001031362AD4B1B6AAC4A23F0040313629E
:1017D00007F50073A3F5FE731B68DB68002B00F0B0
:1017E0008180FFF73DF8C7F8F8010BE0FFF738F804
:1017F0000246D7F8F831D31A41F28832934201D920
:10180000032345E307F50073A3F5A07302221A60D2
:1018100007F50073A3F5A0731B6893FAA3F207F50D
:101820000073A3F5A2731A6007F50073A3F5A47300
:1018300002221A6007F50073A3F5A4731B6893FADC
:10184000A3F207F50073A3F5A6731A6007F50073FA
:10185000A3F5A6731B68B3FA83F3DBB25B09DBB2B3
:1018600043F00203DBB2022B02D1844B1B6A13E06C
:1018700007F50073A3F5A87302221A6007F5007339
:10188000A3F5A8731B6893FAA3F207F50073A3F5F9
:10189000AA731A60794B5B6A07F50072A2F5AC7205
:1018A0000221116007F50072A2F5AC72126892FA7B
:1018B000A2F107F50072A2F5AE72116007F5007291
:1018C000A2F5AE721268B2FA82F2D2B242F04002CF
:1018D000D2B202F01F02012101FA02F21340002BE2
:1018E00084D07FE0FEF7BCFFC7F8F8010BE0FEF7FD
:1018F000B7FF0246D7F8F831D31A41F28832934243
:1019000001D90323C4E207F50073A3F5B0730222E3
:101910001A6007F50073A3F5B0731B6893FAA3F27E
:1019200007F50073A3F5B2731A6007F50073A3F50A
:10193000B47302221A6007F50073A3F5B4731B6831
:1019400093FAA3F207F50073A3F5B6731A6007F5CF
:101950000073A3F5B6731B68B3FA83F3DBB25B09BC
:10196000DBB243F00203DBB2022B02D1434B1B6A12
:1019700013E007F50073A3F5B87302221A6007F5A8
:101980000073A3F5B8731B6893FAA3F207F500730D
:10199000A3F5BA731A60394B5B6A07F50072A2F5BA
:1019A000BC720221116007F50072A2F5BC721268C8
:1019B00092FAA2F107F50072A2F5BE72116007F566
:1019C0000072A2F5BE721268B2FA82F2D2B242F08E
:1019D0004002D2B202F01F02012101FA02F21340CA
:1019E000002B84D197F8FF31012B05D1234BDB6904
:1019F000224A23F08053D36107F50073A3F5FE73E9
:101A00001B68DB69002B00F042821C4B5B6803F013
:101A10000C03082B00F0138207F50073A3F5FE7387
:101A20001B68DB69022B40F0628107F50073A3F5A8
:101A3000C0734FF080721A6007F50073A3F5C0738E
:101A40001B6893FAA3F207F50073A3F5C2731A603B
:101A500007F50073A3F5C2731B68B3FA83F3DBB217
:101A600003F1845303F584139B001A46002313608B
:101A7000FEF7F6FEC7F8F8010CE000BF00100240C8
:101A8000FEF7EEFE0246D7F8F831D31A022B01D941
:101A90000323FDE107F50073A3F5C4734FF0007253
:101AA0001A6007F50073A3F5C4731B6893FAA3F2D9
:101AB00007F50073A3F5C6731A6007F50073A3F565
:101AC000C6731B68B3FA83F3DBB25B09DBB243F086
:101AD0000103DBB2012B02D1B04B1B6827E007F5F5
:101AE0000073A3F5C8734FF000721A6007F5007316
:101AF000A3F5C8731B6893FAA3F207F50073A3F567
:101B0000CA731A6007F50073A3F5CC734FF0007227
:101B10001A6007F50073A3F5CC731B6893FAA3F260
:101B200007F50073A3F5CE731A609C4B5B6A07F54B
:101B30000072A2F5D0724FF00071116007F50072CB
:101B4000A2F5D072126892FAA2F107F50072A2F51E
:101B5000D272116007F50072A2F5D2721268B2FA61
:101B600082F2D2B242F02002D2B202F01F02012170
:101B700001FA02F21340002B82D1884B5B6823F4F8
:101B8000741207F50073A3F5FE731B68596A07F515
:101B90000073A3F5FE731B681B6A0B437F49134355
:101BA0004B6007F50073A3F5D4734FF080721A6091
:101BB00007F50073A3F5D4731B6893FAA3F207F536
:101BC0000073A3F5D6731A6007F50073A3F5D673F7
:101BD0001B68B3FA83F3DBB203F1845303F5841378
:101BE0009B001A4601231360FEF73AFEC7F8F8017E
:101BF00009E0FEF735FE0246D7F8F831D31A022B7A
:101C000001D9032344E107F50073A3F5D8734FF01E
:101C100000721A6007F50073A3F5D8731B6893FA76
:101C2000A3F207F50073A3F5DA731A6007F50073E2
:101C3000A3F5DA731B68B3FA83F3DBB25B09DBB29B
:101C400043F00103DBB2012B02D1544B1B6827E0A8
:101C500007F50073A3F5DC734FF000721A6007F507
:101C60000073A3F5DC731B6893FAA3F207F5007306
:101C7000A3F5DE731A6007F50073A3F5E0734FF068
:101C800000721A6007F50073A3F5E0731B6893FAFE
:101C9000A3F207F50073A3F5E2731A603F4B5B6A8A
:101CA00007F50072A2F5E4724FF00071116007F5BC
:101CB0000072A2F5E472126892FAA2F107F50072BE
:101CC000A2F5E672116007F50072A2F5E6721268DD
:101CD000B2FA82F2D2B242F02002D2B202F01F0275
:101CE000012101FA02F21340002B82D0CFE007F568
:101CF0000073A3F5E8734FF080721A6007F5007364
:101D0000A3F5E8731B6893FAA3F207F50073A3F534
:101D1000EA731A6007F50073A3F5EA731B68B3FA58
:101D200083F3DBB203F1845303F584139B001A465B
:101D300000231360FEF794FDC7F8F80109E0FEF7F1
:101D40008FFD0246D7F8F831D31A022B01D90323AD
:101D50009EE007F50073A3F5EC734FF000721A6074
:101D600007F50073A3F5EC731B6893FAA3F207F56C
:101D70000073A3F5EE731A6007F50073A3F5EE7315
:101D80001B68B3FA83F3DBB25B09DBB243F00103F8
:101D9000DBB2012B04D1014B1B6829E0001002408B
:101DA00007F50073A3F5F0734FF000721A6007F5A2
:101DB0000073A3F5F0731B6893FAA3F207F50073A1
:101DC000A3F5F2731A6007F50073A3F5F4734FF0EF
:101DD00000721A6007F50073A3F5F4731B6893FA99
:101DE000A3F207F50073A3F5F6731A602B4B5B6A39
:101DF00007F50072A2F5F8724FF00071116007F557
:101E00000072A2F5F872126892FAA2F107F5007258
:101E1000A2F5FA72116007F50072A2F5FA72126863
:101E2000B2FA82F2D2B242F02002D2B202F01F0223
:101E3000012101FA02F21340002B80D127E007F5BF
:101E40000073A3F5FE731B68DB69012B01D101232D
:101E50001EE0124B5B68C7F8F431D7F8F43103F495
:101E6000803207F50073A3F5FE731B681B6A9A4264
:101E70000BD1D7F8F43103F4701207F50073A3F512
:101E8000FE731B685B6A9A4201D0012300E00023C5
:101E9000184607F50077BD4680BD00BF0010024020
:101EA00080B59EB000AF7860396000237B677B68A7
:101EB000002B01D1012362E1904B1B6803F0070363
:101EC0003A689A4210D98D4B1B6823F007028B4960
:101ED0003B6813430B60894B1B6803F007033A68A8
:101EE0009A4201D001234AE17B681B6803F0020398
:101EF000002B08D0824B5B6823F0F0027B689B6864
:101F00007F4913434B607B681B6803F00103002B80
:101F100000F0DC807B685B68012B3CD14FF4003320
:101F20003B673B6F93FAA3F3FB66FB6EB3FA83F355
:101F3000DBB25B09DBB243F00103DBB2012B02D160
:101F40006F4B1B680FE04FF40033BB66BB6E93FA18
:101F5000A3F37B664FF400333B663B6E93FAA3F327
:101F6000FB65674B5B6A4FF40032BA65BA6D92FA53
:101F7000A2F27A657A6DB2FA82F2D2B242F020020F
:101F8000D2B202F01F02012101FA02F21340002B2B
:101F90007BD10123F3E07B685B68022B3CD14FF0DF
:101FA00000733B653B6D93FAA3F3FB64FB6CB3FAE0
:101FB00083F3DBB25B09DBB243F00103DBB2012B3D
:101FC00002D14F4B1B680FE04FF00073BB64BB6C3A
:101FD00093FAA3F37B644FF000733B643B6C93FA7A
:101FE000A3F3FB63464B5B6A4FF00072BA63BA6BB4
:101FF00092FAA2F27A637A6BB2FA82F2D2B242F029
:102000002002D2B202F01F02012101FA02F21340B3
:10201000002B3AD10123B2E002233B633B6B93FADE
:10202000A3F3FB62FB6AB3FA83F3DBB25B09DBB2B7
:1020300043F00103DBB2012B02D1314B1B680DE0F1
:102040000223BB62BB6A93FAA3F37B6202233B6267
:102050003B6A93FAA3F3FB61294B5B6A0222BA61E4
:10206000BA6992FAA2F27A617A69B2FA82F2D2B2CB
:1020700042F02002D2B202F01F02012101FA02F264
:102080001340002B01D1012379E01D4B5B6823F045
:1020900003027B685B681A4913434B60FEF7E0FB61
:1020A00078670AE0FEF7DCFB02467B6FD31A41F249
:1020B0008832934201D9032361E0114B5B6803F03E
:1020C0000C027B685B689B009A42EBD10B4B1B6850
:1020D00003F007033A689A4214D2084B1B6823F0B6
:1020E000070206493B6813430B60044B1B6803F06F
:1020F00007033A689A4205D0012340E000200240DD
:10210000001002407B681B6803F00403002B08D01A
:102110001D4B5B6823F4E0627B68DB681A4913435C
:102120004B607B681B6803F00803002B09D0164B3B
:102130005B6823F460527B681B69DB001249134320
:102140004B6000F029F801460F4B5B6803F0F00389
:10215000F0223A613A6992FAA2F2FA60FA68B2FAA7
:1021600082F2D2B2D340094AD35C21FA03F3084A7F
:102170001360084B1B681846FEF72EFB0023184619
:102180007837BD4680BD00BF001002400C4E0008ED
:10219000380000203C00002080B48BB000AF00234A
:1021A000FB610023BB6100237B6200237B61002372
:1021B0003B62294B5B68FB61FB6903F00C03042B5A
:1021C00002D0082B03D03CE0244B3B623CE0FB698F
:1021D00003F470134FF47012BA60BA6892FAA2F264
:1021E0007A607A68B2FA82F2D2B2D3401C4AD35CE7
:1021F0007B61194BDB6A03F00F030F223A613A69E6
:1022000092FAA2F2FA60FA68B2FA82F2D2B2D3403B
:10221000144AD35CBB61FB6903F48033002B08D004
:102220000E4ABB69B2FBF3F27B6902FB03F37B62EC
:1022300004E07B690C4A02FB03F37B627B6A3B622E
:1022400002E0064B3B6200BF3B6A18462C37BD4696
:102250005DF8047B704700BF0010024000127A0056
:102260001C4E00082C4E000800093D0080B485B0CB
:1022700000AF0346FB800023FB60B7F90630842BD8
:1022800005D0B7F90620FB6813440333FB60FB68F5
:1022900018461437BD465DF8047B704780B483B0A0
:1022A00000AFEFF305837B607B68002B14BF012335
:1022B0000023DBB218460C37BD465DF8047B70473F
:1022C00080B500AF01F030F80023184680BDF0B5AE
:1022D00089B004AF786039607B685B69002B20D0DF
:1022E0007B689B69002B1CD07B685C687B681D68E1
:1022F0007B681E697B68B3F908301846FFF7B6FFA4
:1023000001467B685B697A68926902920193009149
:102310003B6832462946204600F048FE0346FB60F3
:102320001CE07B685C687B681D687B681B699EB2EB
:102330007B68B3F908301846FFF798FF024607F1AB
:102340000C03019300923B6832462946204600F078
:1023500089FE0346012B01D0002300E0FB681846EC
:102360001437BD46F0BD80B584B000AF78607B689F
:10237000FB60FB68002B01D0FB6800E001231846DE
:1023800000F09EFF002318461037BD4680BD0000B8
:1023900080B586B002AFF8600B467A60FB72FB68CE
:1023A0005B68002B13D0FB7A012B01D1012100E0E7
:1023B0000021FB681B68FA685268019200937B68F1
:1023C0000A4601210B4801F06EFD03460EE0FB7A40
:1023D000012B01D1012200E00022FB681B68009361
:1023E0007B680121034801F03DFD03461846103784
:1023F000BD4680BDF04D000880B588B002AF786062
:10240000396000237B610023FB603B683B613B69D3
:10241000002B01D101233B61FFF740FF0346002B56
:102420001AD007F10C03002200923A69092178685A
:1024300001F0A8FD0346012B02D0FF237B6118E0C9
:10244000FB68002B15D00D4B4FF080521A60BFF384
:102450004F8FBFF36F8F0CE00023009300233A6986
:102460000421786801F08EFD0346012B01D0FF2383
:102470007B617B6918461837BD4680BD04ED00E0DE
:1024800080B483B000AF78607B6803F108027B689A
:102490005A607B684FF0FF329A607B6803F1080254
:1024A0007B68DA607B6803F108027B681A617B68ED
:1024B00000221A6000BF0C37BD465DF8047B7047F0
:1024C00080B483B000AF78607B6800221A6100BFDF
:1024D0000C37BD465DF8047B704780B485B000AF13
:1024E000786039607B685B68FB603B68FA685A60BB
:1024F000FB689A683B689A60FB689B683A685A6018
:10250000FB683A689A603B687A681A617B681B6866
:102510005A1C7B681A6000BF1437BD465DF8047B07
:10252000704780B485B000AF786039603B681B6845
:10253000BB60BB68B3F1FF3F03D17B681B69FB60E5
:102540000CE07B680833FB6002E0FB685B68FB60C3
:10255000FB685B681B68BA689A42F6D2FB685A68E7
:102560003B685A603B685B683A689A603B68FA6807
:102570009A60FB683A685A603B687A681A617B68BF
:102580001B685A1C7B681A6000BF1437BD465DF893
:10259000047B704780B485B000AF78607B681B69AE
:1025A000FB607B685B687A6892689A607B689B686E
:1025B0007A6852685A60FB685B687A689A4203D10D
:1025C0007B689A68FB685A607B6800221A61FB6826
:1025D0001B685A1EFB681A60FB681B681846143794
:1025E000BD465DF8047B704780B584B000AF78606D
:1025F00039607B68FB60FB68002B0AD14FF0500309
:1026000083F31188BFF36F8FBFF34F8FBB6000BFA1
:10261000FEE702F097F8FB681A68FB68DB6BF96865
:10262000096C01FB03F31A44FB685A60FB68002243
:102630009A63FB681A68FB689A60FB681A68FB6813
:10264000DB6B013BF968096C01FB03F31A44FB687F
:10265000DA60FB68FF2283F84420FB68FF2283F8DE
:1026600045203B68002B14D1FB681B69002B1AD056
:10267000FB681033184601F0E1F80346002B12D036
:102680000C4B4FF080521A60BFF34F8FBFF36F8F28
:1026900009E0FB6810331846FFF7F2FEFB682433AD
:1026A0001846FFF7EDFE02F07DF8012318461037BB
:1026B000BD4680BD04ED00E080B58EB002AFF8608D
:1026C000B9607A603B60FB68002B0AD14FF0500381
:1026D00083F31188BFF36F8FBFF34F8FBB6200BFCF
:1026E000FEE73B68002B0AD14FF0500383F31188BB
:1026F000BFF36F8FBFF34F8F7B6200BFFEE77B6836
:10270000002B02D0BB68002B01D0012300E0002386
:10271000002B0AD14FF0500383F31188BFF36F8F62
:10272000BFF34F8F3B6200BFFEE77B68002B02D1F7
:10273000BB68002B01D1012300E00023002B0AD14C
:102740004FF0500383F31188BFF36F8FBFF34F8FA8
:10275000FB6100BFFEE748237B617B69482B0AD001
:102760004FF0500383F31188BFF36F8FBFF34F8F88
:10277000BB6100BFFEE73B68FB62FB6A002B0DD02C
:10278000FB6A012283F8462097F83820FB6A009301
:1027900013467A68B968F86800F005F8FB6A1846CD
:1027A0003037BD4680BD80B584B000AFF860B960F9
:1027B0007A60FB70BB68002B03D1BB69BA691A60F1
:1027C00002E0BB697A681A60BB69FA68DA63BB69C0
:1027D000BA681A640121B869FFF706FF00BF103715
:1027E000BD4680BD80B58EB000AFF860B9607A603C
:1027F0003B6000237B63FB683B633B6B002B0AD190
:102800004FF0500383F31188BFF36F8FBFF34F8FE7
:10281000BB6200BFFEE7BB68002B03D13B6B1B6CA8
:10282000002B01D1012300E00023002B0AD14FF03F
:10283000500383F31188BFF36F8FBFF34F8F7B6219
:1028400000BFFEE73B68022B03D13B6BDB6B012B28
:1028500001D1012300E00023002B0AD14FF05003E7
:1028600083F31188BFF36F8FBFF34F8F3B6200BFBD
:10287000FEE701F0A5F90346002B02D17B68002B8F
:1028800001D1012300E00023002B0AD14FF05003B7
:1028900083F31188BFF36F8FBFF34F8FFB6100BFCE
:1028A000FEE701F04FFF3B6B9A6B3B6BDB6B9A4291
:1028B00002D33B68022B29D13A68B968386B00F023
:1028C00007FAF8623B6B5B6A002B10D03B6B24333A
:1028D000184600F0B3FF0346002B13D03F4B4FF0D8
:1028E00080521A60BFF34F8FBFF36F8F0AE0FB6A0D
:1028F000002B07D0394B4FF080521A60BFF34F8F37
:10290000BFF36F8F01F04EFF012363E07B68002B64
:1029100003D101F047FF00235CE07B6B002B06D165
:1029200007F11403184600F0EBFF01237B6301F06D
:1029300039FF00F05FFD01F005FF3B6B93F8443079
:102940005BB2B3F1FF3F03D13B6B002283F844201D
:102950003B6B93F845305BB2B3F1FF3F03D13B6B68
:10296000002283F8452001F01DFF3A1D07F11403F2
:102970001146184600F0DAFF0346002B24D1386BCD
:1029800000F09EFA0346002B18D03B6B10337A6898
:102990001146184600F002FF386B00F029FA00F0EB
:1029A00037FD0346002B7FF47CAF0C4B4FF0805279
:1029B0001A60BFF34F8FBFF36F8F72E7386B00F071
:1029C00017FA00F025FD6CE7386B00F011FA00F003
:1029D0001FFD002318463837BD4680BD04ED00E0DA
:1029E00080B58EB000AFF860B9607A603B60FB687C
:1029F0003B633B6B002B0AD14FF0500383F31188EC
:102A0000BFF36F8FBFF34F8F7B6200BFFEE7BB68E2
:102A1000002B03D13B6B1B6C002B01D1012300E089
:102A20000023002B0AD14FF0500383F31188BFF32A
:102A30006F8FBFF34F8F3B6200BFFEE73B68022BF7
:102A400003D13B6BDB6B012B01D1012300E00023A1
:102A5000002B0AD14FF0500383F31188BFF36F8F1F
:102A6000BFF34F8FFB6100BFFEE701F04DFFEFF3B7
:102A700011824FF0500383F31188BFF36F8FBFF3C0
:102A80004F8FBA617B61BB69FB623B6B9A6B3B6B9F
:102A9000DB6B9A4202D33B68022B2CD13B6B93F841
:102AA000453087F82B303A68B968386B00F010F978
:102AB00097F92B30B3F1FF3F12D13B6B5B6A002BD0
:102AC00016D03B6B2433184600F0B8FE0346002BAB
:102AD0000ED07B68002B0BD07B6801221A6007E0C8
:102AE00097F82B300133DBB25AB23B6B83F84520A9
:102AF00001237B6301E000237B63FB6A3B613B694D
:102B000083F3118800BF7B6B18463837BD4680BD04
:102B100080B58CB000AFF860B9607A600023FB62CA
:102B2000FB68BB62BB6A002B0AD14FF0500383F3F2
:102B30001188BFF36F8FBFF34F8F3B6200BFFEE77B
:102B4000BB68002B03D1BB6A1B6C002B01D1012396
:102B500000E00023002B0AD14FF0500383F31188CB
:102B6000BFF36F8FBFF34F8FFB6100BFFEE701F034
:102B700027F80346002B02D17B68002B01D10123EB
:102B800000E00023002B0AD14FF0500383F311889B
:102B9000BFF36F8FBFF34F8FBB6100BFFEE701F044
:102BA000D1FDBB6A9B6B7B627B6A002B1FD0B9682F
:102BB000B86A00F0F7F87B6A5A1EBB6A9A63BB6A70
:102BC0001B69002B0FD0BB6A1033184600F036FE8D
:102BD0000346002B07D03D4B4FF080521A60BFF3E5
:102BE0004F8FBFF36F8F01F0DDFD012369E07B683C
:102BF000002B03D101F0D6FD002362E0FB6A002B1D
:102C000006D107F11003184600F07AFE0123FB629B
:102C100001F0C8FD00F0EEFB01F094FDBB6A93F8F3
:102C200044305BB2B3F1FF3F03D1BB6A002283F8AB
:102C30004420BB6A93F845305BB2B3F1FF3F03D148
:102C4000BB6A002283F8452001F0ACFD3A1D07F174
:102C500010031146184600F069FE0346002B23D1ED
:102C6000B86A00F017F90346002B17D0BB6A24336B
:102C70007A681146184600F091FDB86A00F0B8F87D
:102C800000F0C6FB0346002B89D1104B4FF0805259
:102C90001A60BFF34F8FBFF36F8F80E7B86A00F001
:102CA000A7F800F0B5FB7AE7B86A00F0A1F800F0E9
:102CB000AFFBB86A00F0EEF80346002B3FF46FAFAD
:102CC000002318463037BD4680BD00BF04ED00E04C
:102CD00080B586B000AFF860B9607A6000237B6190
:102CE000FB689B6B3B61FB681B6C002B0DD1FB6889
:102CF0001B68002B4DD1FB685B68184600F07EFF17
:102D00007861FB6800225A6043E07B68002B19D190
:102D1000FB689868FB681B6C1A46B96802F032F8C9
:102D2000FB689A68FB681B6C1A44FB689A60FB6836
:102D30009A68FB685B689A422BD3FB681A68FB6849
:102D40009A6026E0FB68D868FB681B6C1A46B96875
:102D500002F018F8FB68DA68FB681B6C5B421A44E7
:102D6000FB68DA60FB68DA68FB681B689A4207D286
:102D7000FB685A68FB681B6C5B421A44FB68DA60AC
:102D80007B68022B05D13B69002B02D03B69013BDC
:102D90003B613B695A1CFB689A637B69184618378C
:102DA000BD4680BD80B582B000AF786039607B6879
:102DB0001B6C002B18D07B68DA687B681B6C1A448C
:102DC0007B68DA607B68DA687B685B689A4203D369
:102DD0007B681A687B68DA607B68D9687B681B6CE3
:102DE0001A46386801F0CEFF00BF0837BD4680BDE7
:102DF00080B584B000AF786001F0A4FC7B6893F8E4
:102E00004530FB7311E07B685B6A002B12D07B6856
:102E10002433184600F012FD0346002B01D000F0C9
:102E2000E7FDFB7B013BDBB2FB7397F90F30002B17
:102E3000E9DC00E000BF7B68FF2283F8452001F059
:102E4000B1FC01F07FFC7B6893F84430BB7311E068
:102E50007B681B69002B12D07B681033184600F08A
:102E6000EDFC0346002B01D000F0C2FDBB7B013B13
:102E7000DBB2BB7397F90E30002BE9DC00E000BF3A
:102E80007B68FF2283F8442001F08CFC00BF1037E0
:102E9000BD4680BD80B584B000AF786001F052FCC3
:102EA0007B689B6B002B02D10123FB6001E00023B8
:102EB000FB6001F077FCFB6818461037BD4680BD0B
:102EC00080B584B000AF786001F03CFC7B689A6B01
:102ED0007B68DB6B9A4202D10123FB6001E0002397
:102EE000FB6001F05FFCFB6818461037BD4680BDF3
:102EF00080B485B000AF786039600023FB6014E0D7
:102F00000F4AFB6852F83330002B0BD10C49FB6899
:102F10003A6841F833200A4AFB68DB0013447A68B8
:102F20005A6006E0FB680133FB60FB68072BE7D9BA
:102F300000BF00BF1437BD465DF8047B704700BF7B
:102F40001C07002080B586B000AFF860B9607A60D9
:102F5000FB687B6101F0F6FB7B6993F844305BB260
:102F6000B3F1FF3F03D17B69002283F844207B69E2
:102F700093F845305BB2B3F1FF3F03D17B69002288
:102F800083F8452001F00EFC7B699B6B002B06D17A
:102F90007B6924337A68B968184600F023FC7869A5
:102FA000FFF726FF00BF1837BD4680BD80B58EB045
:102FB00004AFF860B9607A603B607B6B002B0AD18C
:102FC0004FF0500383F31188BFF36F8FBFF34F8F20
:102FD0003B6200BFFEE7BB6B002B0AD14FF05003F2
:102FE00083F31188BFF36F8FBFF34F8FFB6100BF77
:102FF000FEE754233B613B69542B0AD04FF050034A
:1030000083F31188BFF36F8FBFF34F8FBB6100BF96
:10301000FEE7BB6B002B1ED07B6B002B1BD0BB6B6A
:103020007B627B6A7A6B1A637B6A022283F8512087
:10303000002303937B6A029307F1140301933B6B14
:1030400000933B687A68B968F86800F050F8786ACD
:1030500000F0CCF801E000237B617B69184628373B
:10306000BD4680BD80B58CB004AFF860B9603B60F0
:103070001346FB80FB889B00184601F085FC7861B5
:103080007B69002B0ED0542001F07EFCF861FB69B7
:10309000002B03D0FB697A691A6305E0786901F0B7
:1030A00037FD01E00023FB61FB69002B17D0FB69B2
:1030B000002283F85120FA8800230393FB690293CE
:1030C000FB6A0193BB6A00933B68B968F86800F03B
:1030D0000EF8F86900F08AF80123BB6102E04FF0B6
:1030E000FF33BB61BB6918462037BD4680BD80B544
:1030F00088B000AFF860B9607A603B603B6B1A6BD8
:103100007B6803F18043013B9B001344BB61BB69B7
:1031100023F00703BB61BB6903F00703002B0AD050
:103120004FF0500383F31188BFF36F8FBFF34F8FBE
:103130007B6100BFFEE70023FB6112E0BA68FB6918
:10314000134419783A6BFB69134434330A461A70F6
:10315000BA68FB6913441B78002B06D0FB69013366
:10316000FB61FB690F2BE9D900E000BF3B6B00223C
:1031700083F84320BB6A062B01D90623BB623B6B55
:10318000BA6ADA623B6BBA6A5A643B6B00229A6491
:103190003B6B04331846FFF793F93B6B1833184623
:1031A000FFF78EF93B6B3A6B1A61BB6AC3F10702FA
:1031B0003B6B9A613B6B3A6B5A623B6B0022DA6461
:1031C0003B6B002283F850203A68F968B86901F037
:1031D00089F902463B6B1A60FB6A002B02D0FB6A3E
:1031E0003A6B1A6000BF2037BD4680BD80B582B003
:1031F00000AF786001F0A6FA2A4B1B680133294A18
:103200001360294B1B68002B09D1274A7B68136088
:10321000244B1B68012B10D100F00EFC0DE0234B5A
:103220001B68002B09D1204B1B68DA6A7B68DB6ABC
:103230009A4202D81C4A7B6813601D4B1B680133FD
:103240001B4A13607B68DB6A01229A40194B1B689A
:103250001343184A13607B68DA6A13469B001344D1
:103260009B00154A1A447B68043319461046FFF741
:1032700034F901F097FA0D4B1B68002B0ED00A4B66
:103280001B68DA6A7B68DB6A9A4207D20B4B4FF005
:1032900080521A60BFF34F8FBFF36F8F00BF0837A4
:1032A000BD4680BD5C0800205C0700206808002047
:1032B00078080020640800206007002004ED00E08A
:1032C00080B584B000AF78600023FB607B68002B82
:1032D00017D0134B1B68002B0AD04FF0500383F319
:1032E0001188BFF36F8FBFF34F8FBB6000BFFEE746
:1032F00000F080F80021786800F006FD00F088F802
:10330000F860FB68002B07D1064B4FF080521A6023
:10331000BFF34F8FBFF36F8F00BF1037BD4680BD27
:103320008408002004ED00E080B58AB004AF0023DB
:10333000BB6000237B603A46391D07F1080318463D
:10334000FDF77EF839687B68BA6802920193002322
:10335000009300230A4621492148FFF727FE034630
:10336000204A13601F4B1B68002B02D001237B6196
:1033700001E000237B617B69012B02D100F02AFD73
:1033800078617B69012B16D14FF0500383F31188CC
:10339000BFF36F8FBFF34F8F3B6100BF124B4FF0F6
:1033A000FF321A60114B01221A60114B00221A6081
:1033B00001F026F90EE07B69B3F1FF3F0AD14FF02F
:1033C000500383F31188BFF36F8FBFF34F8FFB6000
:1033D00000BFFEE700BF1837BD4680BDF44D0008B2
:1033E000093A0008800800207C08002068080020B6
:1033F0006008002080B400AF044B1B680133034A0F
:10340000136000BFBD465DF8047B70478408002050
:1034100080B584B000AF0023FB600023BB60414B4C
:103420001B68002B0AD14FF0500383F31188BFF3C0
:103430006F8FBFF34F8F3B6000BFFEE701F082F953
:10344000384B1B68013B374A1360364B1B68002B17
:1034500061D1354B1B68002B5DD02EE0334BDB6810
:10346000DB68FB60FB6818331846FFF793F8FB68CE
:1034700004331846FFF78EF8FB68DB6A01229A4096
:103480002B4B1B6813432A4A1360FB68DA6A134606
:103490009B0013449B00274A1A44FB6804331946D7
:1034A0001046FFF71AF8FB68DA6A234B1B68DB6AE1
:1034B0009A4202D3214B01221A601C4B1B68002B3D
:1034C000CCD1FB68002B01D000F054FB1C4B1B68D7
:1034D0007B607B68002B10D000F046F80346002B81
:1034E00002D0164B01221A607B68013B7B607B682F
:1034F000002BF1D1124B00221A60104B1B68002BDD
:1035000009D00123BB600F4B4FF080521A60BFF30C
:103510004F8FBFF36F8F01F045F9BB681846103726
:10352000BD4680BD840800205C0800201C080020E7
:1035300064080020600700205C070020700800205D
:103540006C08002004ED00E080B483B000AF054BB0
:103550001B687B607B6818460C37BD465DF8047BB2
:10356000704700BF6008002080B586B000AF002320
:103570007B61514B1B68002B40F08D804F4B1B68CB
:1035800001333B614D4A3B6913603B69002B20D1FD
:103590004B4B1B681B68002B0AD04FF0500383F382
:1035A0001188BFF36F8FBFF34F8F3B6000BFFEE703
:1035B000434B1B68FB60434B1B68414A1360414A05
:1035C000FB681360404B1B6801333F4A136000F0F7
:1035D000D1FA3E4B1B683A699A424DD3384B1B686F
:1035E0001B68002B01D1012300E00023002B04D035
:1035F000364B4FF0FF321A603EE0314B1B68DB6800
:10360000DB68BB60BB685B687B603A697B689A4239
:1036100003D22E4A7B6813602EE0BB680433184641
:10362000FEF7B8FFBB689B6A002B04D0BB68183359
:103630001846FEF7AFFFBB68DB6A01229A40244BB5
:103640001B681343224A1360BB68DA6A13469B0067
:1036500013449B001F4A1A44BB68043319461046A2
:10366000FEF73BFFBB68DA6A1B4B1B68DB6A9A42BA
:10367000B4D301237B61B1E7174B1B68DA6A1549A4
:1036800013469B0013449B000B441B68012B07D976
:1036900001237B6104E0114B1B6801330F4A136067
:1036A0000F4B1B68002B01D001237B617B691846FF
:1036B0001837BD4680BD00BF840800206008002088
:1036C0001408002018080020740800207C0800203E
:1036D00064080020600700205C0700206C080020C0
:1036E0007008002080B487B000AF274B1B68002B08
:1036F00003D0264B01221A603FE0244B00221A60BF
:10370000234B1B68FB60FB68B3FA83F3FB72FB7A05
:10371000C3F11F037B611F497A6913469B00134461
:103720009B000B441B68002B0AD14FF0500383F31E
:103730001188BFF36F8FBFF34F8F7B6000BFFEE731
:103740007A6913469B0013449B00124A13443B6161
:103750003B695B685A683B695A603B695A683B69D8
:1037600008339A4204D13B695B685A683B695A60E6
:103770003B695B68DB68084A136000BF1C37BD46C5
:103780005DF8047B704700BF8408002070080020AB
:1037900064080020600700205C07002080B584B02A
:1037A00000AF786039607B68002B0AD14FF050037E
:1037B00083F31188BFF36F8FBFF34F8FFB6000BFA0
:1037C000FEE7074B1B68183319467868FEF7A9FE19
:1037D0000121386800F098FA00BF1037BD4680BD5F
:1037E0005C07002080B586B000AFF860B9607A60F1
:1037F000FB68002B0AD14FF0500383F31188BFF30D
:103800006F8FBFF34F8F7B6100BFFEE70A4B1B68D2
:1038100018331946F868FEF760FE7B68002B02D06B
:103820004FF0FF33BB607968B86800F06DFA00BFF5
:103830001837BD4680BD00BF5C07002080B586B04C
:1038400000AF78607B68DB68DB683B613B69002B1D
:103850000AD14FF0500383F31188BFF36F8FBFF38A
:103860004F8FFB6000BFFEE73B6918331846FEF739
:1038700091FE1D4B1B68002B1CD13B69043318467D
:10388000FEF788FE3B69DB6A01229A40174B1B68F2
:103890001343164A13603B69DA6A13469B001344CC
:1038A0009B00134A1A443B69043319461046FEF73D
:1038B00014FE05E03B69183319460E48FEF70DFE6D
:1038C0003B69DA6A0C4B1B68DB6A9A4205D9012313
:1038D0007B610A4B01221A6001E000237B617B6956
:1038E00018461837BD4680BD8408002064080020B3
:1038F000600700201C0800205C07002070080020E2
:1039000080B483B000AF7860064B1A687B681A6099
:10391000054B1A687B685A6000BF0C37BD465DF8DE
:10392000047B7047740800206008002080B588B0D0
:1039300000AF786039607B68002B0AD14FF05003EC
:1039400083F31188BFF36F8FBFF34F8F3B6100BFCD
:10395000FEE73B68002B0AD14FF0500383F3118838
:10396000BFF36F8FBFF34F8FFB6000BFFEE700F028
:10397000E9FE1D4B1B68BB617B685B68BA69D31AA3
:103980007B613B681B68B3F1FF3F02D10023FB6101
:1039900023E07B681A68154B1B689A4207D07B6846
:1039A0005B68BA699A4202D30123FB6115E03B6868
:1039B0001B687A699A420BD23B681A687B69D21AF3
:1039C0003B681A607868FFF79BFF0023FB6104E007
:1039D0003B6800221A600123FB6100F0E3FEFB69F3
:1039E00018462037BD4680BD6008002074080020BE
:1039F00080B400AF034B01221A6000BFBD465DF8E2
:103A0000047B70477008002080B582B000AF7860FA
:103A100000F052F8064B1B68012BF9D9054B4FF00B
:103A200080521A60BFF34F8FBFF36F8FF0E700BF74
:103A30006007002004ED00E080B582B000AF0023F5
:103A40007B600CE07A6813469B0013449B00124A8B
:103A500013441846FEF714FD7B6801337B607B68D6
:103A6000062BEFD90D48FEF70BFD0D48FEF708FDBC
:103A70000C48FEF705FD0C48FEF702FD0B48FEF76B
:103A8000FFFC0B4B054A1A600A4B054A1A6000BF3F
:103A90000837BD4680BD00BF60070020EC0700204E
:103AA000000800201C0800203008002048080020E2
:103AB000140800201808002080B582B000AF19E07B
:103AC00000F040FE104BDB68DB687B607B680433F2
:103AD0001846FEF75FFD0D4B1B68013B0B4A136058
:103AE0000B4B1B68013B0A4A136000F05BFE7868D1
:103AF00000F010F8064B1B68002BE1D100BF00BF9F
:103B00000837BD4680BD00BF300800205C0800209B
:103B10004408002080B584B000AF78607B6893F8DB
:103B20005130002B08D17B681B6B184600F0F0FF6A
:103B3000786800F0EDFF18E07B6893F85130012BB6
:103B400003D1786800F0E4FF0FE07B6893F8513010
:103B5000022B0AD04FF0500383F31188BFF36F8F0D
:103B6000BFF34F8FFB6000BFFEE700BF1037BD46BD
:103B700080BD000080B483B000AF0F4B1B681B6892
:103B8000002B01D1012300E00023002B04D00B4BBC
:103B90004FF0FF321A6008E0074B1B68DB68DB68F8
:103BA0007B607B685B68054A136000BF0C37BD46CD
:103BB0005DF8047B704700BF140800207C080020DB
:103BC00080B483B000AF0B4B1B68002B02D10123E4
:103BD0007B6008E0084B1B68002B02D102237B604E
:103BE00001E000237B607B6818460C37BD465DF81A
:103BF000047B7047680800208408002080B586B0E8
:103C000000AF78607B683B6100237B617B68002BA1
:103C10006ED03A4B1B683A699A420AD04FF0500373
:103C200083F31188BFF36F8FBFF34F8FFB6000BF2B
:103C3000FEE73B699B6C002B0AD14FF0500383F3E6
:103C40001188BFF36F8FBFF34F8FBB6000BFFEE7DC
:103C50003B699B6C5A1E3B699A643B69DA6A3B6913
:103C60005B6C9A4244D03B699B6C002B40D13B6912
:103C700004331846FEF78EFC0346002B15D13B6932
:103C8000DA6A1F4913469B0013449B000B441B68D0
:103C9000002B0AD13B69DB6A012202FA03F3DA4303
:103CA000184B1B681340174A13603B695A6C3B69F9
:103CB000DA623B69DB6AC3F107023B699A613B69DF
:103CC000DB6A01229A400F4B1B6813430D4A1360B5
:103CD0003B69DA6A13469B0013449B00084A1A4466
:103CE0003B69043319461046FEF7F7FB01237B615D
:103CF0007B6918461837BD4680BD00BF5C070020B1
:103D0000600700206408002080B584B000AF7860B0
:103D10003960294B1B68FB60284B1B68043318462D
:103D2000FEF738FC0346002B0BD1244B1B68DB6AE3
:103D3000012202FA03F3DA43214B1B681340204AA5
:103D400013607B68B3F1FF3F0AD13B68002B07D0BB
:103D50001A4B1B68043319461A48FEF7BEFB26E0CF
:103D6000FA687B681344BB60144B1B68BA685A60DE
:103D7000BA68FB689A4209D2134B1A680F4B1B684A
:103D8000043319461046FEF7CCFB10E00F4B1A68BF
:103D90000A4B1B68043319461046FEF7C2FB0C4B56
:103DA0001B68BA689A4202D2094ABB68136000BF16
:103DB0001037BD4680BD00BF600800205C070020B2
:103DC000640800204808002018080020140800207B
:103DD0007C08002080B58AB004AF00237B6100F02E
:103DE00041FB1C4B1B68002B21D00023FB600023F0
:103DF000BB603A1D07F1080107F10C031846FCF7F8
:103E000039FB7968BB68FA68029201930623009334
:103E100000230A4610491148FFF7C8F80346104A24
:103E200013600F4B1B68002B01D001237B617B6962
:103E3000002B0AD14FF0500383F31188BFF36F8F2B
:103E4000BFF34F8F3B6100BFFEE77B691846183711
:103E5000BD4680BDB8080020FC4D0008A140000808
:103E6000BC08002080B588B002AFF860B9607A6005
:103E70003B602C2000F088FD78617B69002B0DD021
:103E80007B6901933B6A00933B687A68B968F8687C
:103E900000F046F87B69002283F828207B691846E9
:103EA0001837BD4680BD80B58AB002AFF860B960F2
:103EB0007A603B602C233B613B692C2B0AD04FF08E
:103EC000500383F31188BFF36F8FBFF34F8FBB6134
:103ED00000BFFEE7FB6A002B0AD14FF0500383F3CB
:103EE0001188BFF36F8FBFF34F8F7B6100BFFEE779
:103EF000FB6AFB61FB69002B0DD0FB690193BB6A78
:103F000000933B687A68B968F86800F009F8FB69C3
:103F1000012283F82820FB6918462037BD4680BD62
:103F200080B586B000AFF860B9607A603B60BB686E
:103F3000002B0AD14FF0500383F31188BFF36F8F2A
:103F4000BFF34F8F7B6100BFFEE77B6A002B15D06C
:103F500000F088FA7B6AFA681A607B6ABA689A612C
:103F60007B6A7A68DA617B6A3A681A627B6A3A6AC3
:103F70005A627B6A04331846FEF7A2FA00BF18376C
:103F8000BD4680BD80B58AB000AFF860B9607A6088
:103F90003B6000237B62FB68002B0AD14FF050038B
:103FA00083F31188BFF36F8FBFF34F8F3B6200BF66
:103FB000FEE71A4B1B68002B2AD0BB687B617B682D
:103FC000BB61FB68FB61BB68052B18DCFFF7F8FDE4
:103FD0000346022B09D1114B186807F11401002385
:103FE0003A6BFEF7FFFB786212E00C4B186807F1A2
:103FF000140100230022FEF7F5FB786208E0074B6E
:10400000186807F1140100233A68FEF7E9FC7862AA
:104010007B6A18462837BD4680BD00BFB80800201F
:1040200080B588B002AF786039601C4B1B68DB68D4
:10403000DB687B617B6904331846FEF7ABFA7B696A
:10404000DB69012B22D17B699A697B68D1187B6877
:104050003A68786900F0C8F80346002B16D00023B0
:10406000009300237A6800217869FFF78BFF38619D
:104070003B69002B0AD14FF0500383F31188BFF343
:104080006F8FBFF34F8FFB6000BFFEE77B695B6AFA
:104090007869984700BF1837BD4680BDB00800203A
:1040A00080B584B000AF786007F10803184600F0CF
:1040B00057F8F860BB681946F86800F003F800F09C
:1040C000D5F8F1E780B584B000AF78603960FFF7CC
:1040D00091F907F10803184600F066F8F860BB682C
:1040E000002B30D13B68002B0AD17A68FB689A42DA
:1040F00006D8FFF78DF9F9687868FFF791FF24E09B
:104100003B68002B08D0134B1B681B68002B0CBFAF
:1041100001230023DBB23B600F4B18687A68FB6811
:10412000D31A3A681946FEF70DFFFFF771F90346F7
:10413000002B0AD1094B4FF080521A60BFF34F8F0A
:10414000BFF36F8F01E0FFF763F900BF1037BD4683
:1041500080BD00BFB4080020B808002004ED00E0D6
:1041600080B485B000AF78600E4B1B681B68002BD5
:104170000CBF01230023DBB21A467B681A607B6800
:104180001B68002B05D1074B1B68DB681B68FB60B5
:1041900001E00023FB60FB6818461437BD465DF85C
:1041A000047B7047B008002080B584B000AF786011
:1041B000FFF7CAF9F8600B4B1B68FA689A4205D200
:1041C00000F0EEF87B6801221A6002E07B680022B2
:1041D0001A60044AFB681360FB6818461037BD4636
:1041E00080BD00BFC008002080B586B000AFF86079
:1041F000B9607A603B6000237B61FB68BA685A60F3
:10420000FB68FA681A61BA687B689A4212D87A68C1
:104210003B68D21AFB689B699A4202D301237B61F7
:104220001BE0104B1A68FB68043319461046FEF772
:1042300078F912E07A683B689A4206D2BA683B681D
:104240009A4202D301237B6107E0074B1A68FB689F
:10425000043319461046FEF764F97B69184618378F
:10426000BD4680BDB4080020B008002080B58CB0E9
:1042700002AF81E0BB68002B7DDB3B697B627B6A20
:104280005B69002B04D07B6A04331846FEF782F981
:104290003B1D1846FFF788FF3862BB68092B6BD8B7
:1042A00001A252F823F000BFD1420008D142000819
:1042B000D1420008794300082D43000865430008F7
:1042C000D1420008D1420008794300082D4300087C
:1042D000FA687B6A9B69D118FB683A6A786AFFF7CB
:1042E00083FF0346002B47D07B6A5B6A786A984756
:1042F0007B6ADB69012B3FD1FA687B6A9B691A44B0
:104300000023009300230021786AFFF73BFEF86149
:10431000FB69002B30D14FF0500383F31188BFF3BA
:104320006F8FBFF34F8FBB6100BFFEE7FA687B6AF8
:104330009A617B6A9B69002B0AD14FF0500383F38B
:104340001188BFF36F8FBFF34F8F7B6100BFFEE714
:104350007B6A9A693B6AD1183B6A3A6A786AFFF7C6
:1043600043FF09E07B6A93F82830002B04D1786A78
:1043700000F0CEFB00E000BF084B1B6807F108010E
:1043800000221846FEF7C4FB0346002B7FF472AFF1
:1043900000BF00BF2837BD4680BD00BFB808002061
:1043A00080B588B002AF45E02C4B1B68DB681B680A
:1043B0003B612A4B1B68DB68DB68FB60FB680433EE
:1043C0001846FEF7E7F8FB685B6AF8689847FB68F1
:1043D000DB69012B2ED1FB689B693A691344BB60F2
:1043E000BA683B699A420ED9FB68BA685A60FB68A2
:1043F000FA681A61194B1A68FB68043319461046AB
:10440000FEF78FF816E00023009300233A6900219D
:10441000F868FFF7B7FD78607B68002B0AD14FF092
:10442000500383F31188BFF36F8FBFF34F8F3B604F
:1044300000BFFEE7094B1B681B68002BB4D1074B7C
:104440001B687B61064B1B68044A1360044A7B6946
:10445000136000BF1837BD4680BD00BFB008002004
:10446000B408002080B582B002AF00F06BF9154BA4
:104470001B68002B20D11448FEF702F81348FDF703
:10448000FFFF134B104A1A60124B104A1A600023A8
:104490000093114B114A0C210A20FEF70DF9034637
:1044A000084A1360074B1B68002B05D0054B1B689F
:1044B0000B491846FEF71CFD00F074F900BFBD461D
:1044C00080BD00BFB8080020880800209C0800209C
:1044D000B0080020B40800203C090020C4080020D7
:1044E000044E000880B485B000AFF860B9607A600F
:1044F000FB68043BFB60FB684FF080721A60FB684E
:10450000043BFB60BB6823F00102FB681A60FB6898
:10451000043BFB600C4AFB681A60FB68143BFB60C1
:104520007A68FB681A60FB68043BFB60FB686FF00D
:1045300002021A60FB68203BFB60FB6818461437D8
:10454000BD465DF8047B70474D45000880B485B0DA
:1045500000AF00237B60124B1B68B3F1FF3F0AD012
:104560004FF0500383F31188BFF36F8FBFF34F8F6A
:10457000FB6000BFFEE74FF0500383F31188BFF3E9
:104580006F8FBFF34F8FBB6000BF00BF7B68002BF6
:10459000FCD000BF00BF1437BD465DF8047B7047F8
:1045A00044000020000000000000000000000000A7
:1045B000074B19680868B0E8F04F80F30988BFF32B
:1045C0006F8F4FF0000080F311887047AFF30080C9
:1045D0005C07002000BF00BF08480068006880F347
:1045E00008884FF0000080F3148862B661B6BFF30C
:1045F0004F8FBFF36F8F00DF00BF00BF08ED00E0FB
:1046000080B586B000AF464B1B68464A93420AD13C
:104610004FF0500383F31188BFF36F8FBFF34F8FB9
:104620003B6100BFFEE73E4B1B683F4A93420AD105
:104630004FF0500383F31188BFF36F8FBFF34F8F99
:10464000FB6000BFFEE7394B7B617B691B78DBB207
:104650007B607B69FF221A707B691B78DBB2FB7081
:10466000FB78DBB203F05003DAB2314B1A70314BF6
:1046700007221A6009E02F4B1B68013B2D4A13608B
:10468000FB78DBB25B00DBB2FB70FB78DBB203F0E4
:104690008003802BEFD0274B1B68C3F10703042B4B
:1046A0000AD04FF0500383F31188BFF36F8FBFF32D
:1046B0004F8FBB6000BFFEE71E4B1B681B021D4AED
:1046C00013601C4B1B6803F4E0631A4A13607B6899
:1046D000DAB27B691A70184B1B68174A43F47003EF
:1046E0001360154B1B68144A43F07043136000F0CD
:1046F000DDF8124B00221A6000F0FCF8104B1B682A
:104700000F4A43F040431360FFF766FFFEF7EAFFEE
:10471000FFF71CFF002318461837BD4680BD00BFB9
:1047200000ED00E071C20F4170C20F4100E400E0F3
:10473000840900208809002020ED00E044000020CA
:1047400034EF00E080B483B000AF4FF0500383F348
:104750001188BFF36F8FBFF34F8F7B6000BF0F4B8C
:104760001B6801330D4A13600C4B1B68012B0FD1E2
:104770000B4B1B68DBB2002B0AD04FF0500383F3C6
:104780001188BFF36F8FBFF34F8F3B6000BFFEE711
:1047900000BF0C37BD465DF8047B70474400002025
:1047A00004ED00E080B483B000AF124B1B68002B17
:1047B0000AD14FF0500383F31188BFF36F8FBFF31B
:1047C0004F8F7B6000BFFEE70A4B1B68013B094A25
:1047D0001360084B1B68002B05D100233B603B682E
:1047E00083F3118800BF00BF0C37BD465DF8047B22
:1047F000704700BF440000200000000000000000DF
:10480000EFF30980BFF36F8F154B1A681EF0100F7E
:1048100008BF20ED108A20E9F04F10602DE9090053
:104820004FF0500080F31188BFF34F8FBFF36F8FAD
:10483000FEF758FF4FF0000080F3118809BC19689B
:104840000868B0E8F04F1EF0100F08BFB0EC108AF7
:1048500080F30988BFF36F8F704700BFAFF300800C
:104860005C07002000BF00BF80B582B000AF4FF0F2
:10487000500383F31188BFF36F8FBFF34F8F7B60BB
:1048800000BFFEF771FE0346002B03D0064B4FF02E
:1048900080521A6000233B603B6883F3118800BF9D
:1048A00000BF0837BD4680BD04ED00E080B400AF16
:1048B0000B4B00221A600B4B00221A600A4B1B683C
:1048C0000A4AA2FB03239B09094A013B1360044BDC
:1048D00007221A6000BFBD465DF8047B704700BF29
:1048E00010E000E018E000E038000020D34D621036
:1048F00014E000E0DFF80C00016841F47001016091
:10490000704700BF88ED00E080B485B000AFEFF3E2
:104910000583FB60FB680F2B14D9174AFB6813440F
:104920001B78FB72154B1B78FA7A9A420AD24FF029
:10493000500383F31188BFF36F8FBFF34F8F7B60FA
:1049400000BFFEE70E4B1B6803F4E0620D4B1B68D3
:104950009A420AD94FF0500383F31188BFF36F8F47
:10496000BFF34F8F3B6000BFFEE700BF1437BD466B
:104970005DF8047B704700BFF0E300E0840900208D
:104980000CED00E08809002080B58AB000AF7860A7
:104990000023FB61FEF72EFD584B1B68002B01D155
:1049A00000F010F9564B1A687B681340002B40F05A
:1049B0008E807B68002B1DD008227B6813447B60AF
:1049C0007B6803F00703002B14D07B6823F00703F8
:1049D00008337B607B6803F00703002B0AD04FF09D
:1049E000500383F31188BFF36F8FBFF34F8F7B6149
:1049F00000BFFEE77B68002B69D0424B1B687A68DA
:104A00009A4264D8404B3B623F4B1B687B6204E098
:104A10007B6A3B627B6A1B687B627B6A5B687A6845
:104A20009A4203D97B6A1B68002BF1D1334B1B6878
:104A30007A6A9A424BD03B6A1B6808221344FB6196
:104A40007B6A1A683B6A1A607B6A5A687B68D21A6A
:104A500008235B009A421FD97A6A7B681344BB61C2
:104A6000BB6903F00703002B0AD04FF0500383F318
:104A70001188BFF36F8FBFF34F8F3B6100BFFEE71D
:104A80007B6A5A687B68D21ABB695A607B6A7A680B
:104A90005A60B86900F0F8F81A4B1A687B6A5B68CC
:104AA000D31A184A1360174B1A68184B1B689A429E
:104AB00003D2144B1B68154A13607B6A5A68104B6B
:104AC0001B681A437B6A5A607B6A00221A60FEF7F1
:104AD0009FFCFB6903F00703002B0AD04FF0500343
:104AE00083F31188BFF36F8FBFF34F8FFB6000BF5D
:104AF000FEE7FB6918462837BD4680BD94150020A7
:104B0000A0150020981500208C1500209C15002071
:104B100080B586B000AF78607B687B617B68002BD6
:104B200048D008235B427A6913447B617B693B610F
:104B30003B695A68214B1B681340002B0AD14FF088
:104B4000500383F31188BFF36F8FBFF34F8FFB6068
:104B500000BFFEE73B691B68002B0AD04FF05003F3
:104B600083F31188BFF36F8FBFF34F8FBB6000BF1C
:104B7000FEE73B695A68114B1B681340002B19D0A4
:104B80003B691B68002B15D13B695A680B4B1B68AE
:104B9000DB431A403B695A60FEF72CFC3B695A68BC
:104BA000074B1B681344064A1360386900F06CF821
:104BB000FEF72EFC00BF1837BD4680BDA0150020B3
:104BC0009815002080B485B000AF4FF44063BB60FF
:104BD000274BFB60FB6803F00703002B0CD0FB683E
:104BE0000733FB60FB6823F00703FB60BA68FB68D0
:104BF000D31A1F4A1344BB60FB687B601D4A7B6865
:104C000013601C4B00225A607B68BA681344FB6037
:104C10000822FB689B1AFB60FB6823F00703FB601C
:104C2000FB68154A1360144B1B6800225A60124B34
:104C30001B6800221A607B683B603B68FA68D21AE6
:104C40003B685A600C4B1A683B681A603B685B68AB
:104C50000A4A13603B685B68094A1360094B4FF0CE
:104C600000421A6000BF1437BD465DF8047B7047F0
:104C70008C0900208C150020941500209C15002024
:104C800098150020A015002080B485B000AF786092
:104C9000284BFB6002E0FB681B68FB60FB681B683D
:104CA0007A689A42F7D8FB68BB60FB685B68BA68B1
:104CB00013447A689A4208D1FB685A687B685B683B
:104CC0001A44FB685A60FB687B607B68BB607B684A
:104CD0005B68BA681A44FB681B689A4218D1FB6883
:104CE0001A68154B1B689A420DD07B685A68FB689E
:104CF0001B685B681A447B685A60FB681B681A680B
:104D00007B681A6008E00C4B1A687B681A6003E045
:104D1000FB681A687B681A60FA687B689A4202D05E
:104D2000FB687A681A6000BF1437BD465DF8047BE3
:104D3000704700BF8C1500209415002070B50D4DF4
:104D40000D4C641BA4100026A64209D10B4D0C4C3F
:104D500000F02EF8641BA4100026A64205D170BDF9
:104D600055F8043B98470136EEE755F8043B984761
:104D70000136F2E73C4E00083C4E00083C4E00086D
:104D8000404E00080A44914200F1FF3300D17047C1
:104D900010B511F8014B03F8014F9142F9D110BD44
:104DA00002440346934200D1704703F8011BF9E720
:104DB000F8B500BFF8BC08BC9E467047F8B500BF08
:084DC000F8BC08BC9E467047D8
:104DC80064656661756C745461736B00C84D000846
:104DD8000505000800000000000000008000000039
:104DE80000000000000000000000000049444C459D
:104DF80000000000546D722053766300546D7251A8
:104E08000000000000000000000000000102030490
:104E18000607080902030405060708090A0B0C0D12
:104E28000E0F10100102030405060708090A0B0CEF
:044E38000D0E0F103C
:044E3C00B5010008B4
:044E400091010008D4
:104E4400001000480020000000100048001000007E
:104E54000010004800080000001000480004000092
:104E6400001000480002000000100048000100008B
:104E7400001000480040000000127A0010000000FA
:084E840001000000AAAAAAAA7D
:04000005080007598F
:00000001FF
